:020000040800F2
:10000000005000209D440008913D0008993D0008E3
:10001000A13D0008A93D0008B13D00080000000016
:10002000000000000000000000000000D1BC00083B
:10003000B93D000800000000B1BE0008B9950008F5
:10004000E5440008E5440008E5440008E5440008EC
:10005000E5440008E5440008E5440008C53D000803
:10006000E5440008E5440008E5440008E5440008CC
:10007000E5440008E5440008E5440008E5440008BC
:10008000E5440008E5440008E5440008E5440008AC
:10009000E5440008E5440008E5440008D33D0008B5
:1000A000E5440008E5440008E5440008E54400088C
:1000B000E5440008E5440008E53D0008E544000883
:1000C000E5440008E5440008E5440008E54400086C
:1000D000E5440008E5440008F93D0008E54400084F
:1000E000E5440008E5440008E5440008000000007D
:1000F0000000000000000000000000000000000000
:0C01000000000000000000005FF808F1A3
:1001100010B5054C237833B9044B13B10448AFF341
:1001200000800123237010BD580300200000000050
:100130006048010808B5034B1BB103490348AFF3FE
:10014000008008BD000000005C030020604801083A
:1001500010F8012B11F8013B012A28BF9A42F7D071
:10016000D01A7047034613F8012B002AFBD1181A46
:100170000138704781F0004102E000BF83F0004386
:1001800030B54FEA41044FEA430594EA050F08BF32
:1001900090EA020F1FBF54EA000C55EA020C7FEAF6
:1001A000645C7FEA655C00F0E2804FEA5454D4EB73
:1001B0005555B8BF6D420CDD2C4480EA020281EA3D
:1001C000030382EA000083EA010180EA020281EA75
:1001D0000303362D88BF30BD11F0004F4FEA0131C7
:1001E0004FF4801C4CEA113102D0404261EB4101D6
:1001F00013F0004F4FEA03334CEA133302D052425C
:1002000063EB430394EA050F00F0A780A4F1010417
:10021000D5F1200E0DDB02FA0EFC22FA05F2801851
:1002200041F1000103FA0EF2801843FA05F3594137
:100230000EE0A5F120050EF1200E012A03FA0EFCB6
:1002400028BF4CF0020C43FA05F3C01851EBE371E0
:1002500001F0004507D54FF0000EDCF1000C7EEBFD
:1002600000006EEB0101B1F5801F1BD3B1F5001F3B
:100270000CD349085FEA30004FEA3C0C04F101045A
:100280004FEA445212F5800F80F09A80BCF1004F83
:1002900008BF5FEA500C50F1000041EB045141EA05
:1002A000050130BD5FEA4C0C404141EB0101013CCE
:1002B00028BFB1F5801FE9D291F0000F04BF0146BD
:1002C0000020B1FA81F308BF2033A3F10B03B3F18F
:1002D00020020CDA0C3208DD02F1140CC2F10C021F
:1002E00001FA0CF021FA02F10CE002F11402D8BF7D
:1002F000C2F1200C01FA02F120FA0CFCDCBF41EA49
:100300000C019040E41AA2BF01EB0451294330BD17
:100310006FEA04041F3C1CDA0C340EDC04F11404F4
:10032000C4F1200220FA04F001FA02F340EA0300CB
:1003300021FA04F345EA030130BDC4F10C04C4F111
:10034000200220FA02F001FA04F340EA03002946F1
:1003500030BD21FA04F0294630BD94F0000F83F43B
:10036000801306BF81F480110134013D4EE77FEA1E
:10037000645C18BF7FEA655C29D094EA050F08BF6A
:1003800090EA020F05D054EA000C04BF194610464B
:1003900030BD91EA030F1EBF0021002030BD5FEA8F
:1003A000545C05D14000494128BF41F0004130BDB7
:1003B00014F580043CBF01F5801130BD01F000450B
:1003C00045F0FE4141F470014FF0000030BD7FEA7E
:1003D000645C1ABF194610467FEA655C1CBF0B4679
:1003E000024650EA013406BF52EA033591EA030F90
:1003F00041F4002130BD00BF90F0000F04BF002188
:10040000704730B54FF4806404F132044FF00005BA
:100410004FF0000150E700BF90F0000F04BF002133
:10042000704730B54FF4806404F1320410F0004599
:1004300048BF40424FF000013EE700BF42004FEA94
:10044000E2014FEA31014FEA02701FBF12F07F4311
:1004500093F07F4F81F06051704732F07F4208BFC8
:10046000704793F07F4F04BF41F40021704730B5CF
:100470004FF4607401F0004521F000411CE700BF1B
:1004800050EA010208BF704730B54FF000050AE09E
:1004900050EA010208BF704730B511F0004502D59F
:1004A000404261EB41014FF4806404F132045FEAA1
:1004B000915C3FF4D8AE4FF003025FEADC0C18BF4A
:1004C00003325FEADC0C18BF033202EBDC02C2F13C
:1004D000200300FA03FC20FA02F001FA03FE40EACE
:1004E0000E0021FA02F11444BDE600BF70B54FF0D2
:1004F000FF0C4CF4E06C1CEA11541DBF1CEA1355B0
:1005000094EA0C0F95EA0C0F00F0DEF82C4481EA17
:10051000030621EA4C5123EA4C5350EA013518BF37
:1005200052EA033541F4801143F4801338D0A0FB24
:1005300002CE4FF00005E1FB02E506F00042E0FBD1
:1005400003E54FF00006E1FB03569CF0000F18BFD7
:100550004EF0010EA4F1FF04B6F5007F64F540747F
:1005600004D25FEA4E0E6D4146EB060642EAC62112
:1005700041EA55514FEAC52040EA5E504FEACE2E7F
:10058000B4F1FD0C88BFBCF5E06F1ED8BEF1004F82
:1005900008BF5FEA500E50F1000041EB045170BDFE
:1005A00006F0004646EA010140EA020081EA030142
:1005B000B4EB5C04C2BFD4EB0C0541EA045170BD3E
:1005C00041F480114FF0000E013C00F3AB8014F1B8
:1005D000360FDEBF002001F0004170BDC4F1000401
:1005E000203C35DA0C341BDC04F11404C4F1200582
:1005F00000FA05F320FA04F001FA05F240EA0200DD
:1006000001F0004221F0004110EBD37021FA04F612
:1006100042EB06015EEA430E08BF20EAD37070BDCC
:10062000C4F10C04C4F1200500FA04F320FA05F02B
:1006300001FA04F240EA020001F0004110EBD3702D
:1006400041F100015EEA430E08BF20EAD37070BD9D
:10065000C4F1200500FA05F24EEA020E20FA04F376
:1006600001FA05F243EA020321FA04F001F0004125
:1006700021FA04F220EA020000EBD3705EEA430E96
:1006800008BF20EAD37070BD94F0000F0FD101F0C5
:100690000046400041EB010111F4801F08BF013CFE
:1006A000F7D041EA060195F0000F18BF704703F03C
:1006B0000046520043EB030313F4801F08BF013DC3
:1006C000F7D043EA0603704794EA0C0F0CEA13557F
:1006D00018BF95EA0C0F0CD050EA410618BF52EA39
:1006E0004306D1D181EA030101F000414FF000003F
:1006F00070BD50EA410606BF1046194652EA43064D
:1007000019D094EA0C0F02D150EA013613D195EAC0
:100710000C0F05D152EA03361CBF104619460AD108
:1007200081EA030101F0004141F0FE4141F4700112
:100730004FF0000070BD41F0FE4141F4780170BD02
:1007400070B54FF0FF0C4CF4E06C1CEA11541DBF67
:100750001CEA135594EA0C0F95EA0C0F00F0A7F869
:10076000A4EB050481EA030E52EA03354FEA013196
:1007700000F088804FEA03334FF0805545EA1313A9
:1007800043EA12634FEA022245EA111545EA106571
:100790004FEA00260EF000419D4208BF964244F108
:1007A000FD0404F5407402D25B084FEA3202B61A27
:1007B00065EB03055B084FEA32024FF480104FF4FB
:1007C000002CB6EB020E75EB030E22BFB61A75466F
:1007D00040EA0C005B084FEA3202B6EB020E75EB02
:1007E000030E22BFB61A754640EA5C005B084FEA6A
:1007F0003202B6EB020E75EB030E22BFB61A754637
:1008000040EA9C005B084FEA3202B6EB020E75EB41
:10081000030E22BFB61A754640EADC0055EA060E02
:1008200018D04FEA051545EA16754FEA06164FEA45
:10083000C30343EA52734FEAC2025FEA1C1CC0D1F1
:1008400011F4801F0BD141EA00014FF000004FF07E
:10085000004CB6E711F4801F04BF01430020B4F13F
:10086000FD0C88BFBCF5E06F3FF6AFAEB5EB030CF7
:1008700004BFB6EB020C5FEA500C50F1000041EBF4
:10088000045170BD0EF0004E4EEA113114EB5C04C1
:10089000C2BFD4EB0C0541EA045170BD41F4801194
:1008A0004FF0000E013C90E645EA060E8DE60CEA9C
:1008B000135594EA0C0F08BF95EA0C0F3FF43BAFB9
:1008C00094EA0C0F0AD150EA01347FF434AF95EA70
:1008D0000C0F7FF425AF104619462CE795EA0C0F54
:1008E00006D152EA03353FF4FDAE1046194622E721
:1008F00050EA410618BF52EA43067FF4C5AE50EAFB
:1009000041047FF40DAF52EA43057FF4EBAE12E7EA
:100910004FF0FF3C06E000BF4FF0010C02E000BFCB
:100920004FF0010C4DF804CD4FEA410C7FEA6C5CAE
:100930004FEA430C18BF7FEA6C5C1BD001B050EA51
:10094000410C0CBF52EA430C91EA030F02BF90EA3C
:10095000020F0020704710F1000F91EA030F58BFFB
:10096000994208BF90422CBFD8176FEAE37040F05D
:10097000010070474FEA410C7FEA6C5C02D150EAFB
:10098000013C07D14FEA430C7FEA6C5CD6D152EAB6
:10099000033CD3D05DF8040B704700BF844610467B
:1009A00062468C461946634600E000BF01B5FFF77A
:1009B000B7FF002848BF10F1000F01BD4DF808ED4A
:1009C000FFF7F4FF0CBF012000205DF808FB00BF1B
:1009D0004DF808EDFFF7EAFF34BF012000205DF875
:1009E00008FB00BF4DF808EDFFF7E0FF94BF0120C2
:1009F00000205DF808FB00BF4DF808EDFFF7CEFFC3
:100A000094BF012000205DF808FB00BF4DF808ED01
:100A1000FFF7C4FF34BF012000205DF808FB00BFD2
:100A20004FEA410C7FEA6C5C02D150EA013C0AD1EA
:100A30004FEA430C7FEA6C5C02D152EA033C02D1DC
:100A40004FF0000070474FF0010070474FEA41023D
:100A500012F5001215D211D56FF47873B3EB625210
:100A600012D94FEAC12343F0004343EA505311F037
:100A7000004F23FA02F018BF404270474FF00000C9
:100A8000704750EA013005D111F0004008BF6FF007
:100A9000004070474FF00000704700BF4A0011D27D
:100AA00012F5001211D20DD56FF47873B3EB6252C8
:100AB0000ED44FEAC12343F0004343EA505323FAD4
:100AC00002F070474FF00000704750EA013002D149
:100AD0004FF0FF3070474FF0000070474FEA41027F
:100AE000B2F1E04324BFB3F5001CDCF1FE5C0DD98C
:100AF00001F0004C4FEAC0024CEA5070B2F1004FD6
:100B000040EB830008BF20F00100704711F0804FD8
:100B100021D113F13872BCBF01F00040704741F49D
:100B200080114FEA5252C2F11802C2F1200C10FAA1
:100B30000CF320FA02F018BF40F001004FEAC12385
:100B40004FEAD32303FA0CFC40EA0C0023FA02F329
:100B50004FEA4303CCE77FEA625307D150EA0133FF
:100B60001EBF4FF0FE4040F44000704701F00040CF
:100B700040F0FE4040F40000704700BF80F00040AD
:100B800002E000BF81F0004142001FBF5FEA410365
:100B900092EA030F7FEA226C7FEA236C6AD04FEA65
:100BA0001262D2EB1363C1BFD218414048404140AA
:100BB000B8BF5B42192B88BF704710F0004F40F45C
:100BC000000020F07F4018BF404211F0004F41F478
:100BD000000121F07F4118BF494292EA030F3FD044
:100BE000A2F1010241FA03FC10EB0C00C3F1200357
:100BF00001FA03F100F0004302D5494260EB4000E6
:100C0000B0F5000F13D3B0F1807F06D340084FEA50
:100C1000310102F10102FE2A51D2B1F1004F40EB45
:100C2000C25008BF20F0010040EA030070474900AD
:100C300040EB0000013A28BFB0F5000FEDD2B0FA4A
:100C400080FCACF1080CB2EB0C0200FA0CF0AABF6D
:100C500000EBC25052421843BCBFD040184370470B
:100C600092F0000F81F4000106BF80F40000013211
:100C7000013BB5E74FEA41037FEA226C18BF7FEAE8
:100C8000236C21D092EA030F04D092F0000F08BF2A
:100C90000846704790EA010F1CBF0020704712F011
:100CA0007F4F04D1400028BF40F00040704712F150
:100CB00000723CBF00F50000704700F0004343F0B5
:100CC000FE4040F4000070477FEA226216BF0846EB
:100CD0007FEA23630146420206BF5FEA412390EAAE
:100CE000010F40F4800070474FF0000304E000BFA4
:100CF00010F0004348BF40425FEA000C08BF704755
:100D000043F0964301464FF000001CE050EA010218
:100D100008BF70474FF000030AE000BF50EA01022D
:100D200008BF704711F0004302D5404261EB41011A
:100D30005FEA010C02BF84460146002043F0B6433F
:100D400008BFA3F18053A3F50003BCFA8CF2083A64
:100D5000A3EBC25310DB01FA02FC634400FA02FC6D
:100D6000C2F12002BCF1004F20FA02F243EB020074
:100D700008BF20F00100704702F1200201FA02FCD6
:100D8000C2F1200250EA4C0021FA02F243EB0200C9
:100D900008BF20EADC7070474FF0FF0C1CEAD0520D
:100DA0001EBF1CEAD15392EA0C0F93EA0C0F6FD0CE
:100DB0001A4480EA010C400218BF5FEA41211ED0AC
:100DC0004FF0006343EA501043EA5111A0FB013198
:100DD0000CF00040B1F5000F3EBF490041EAD3716D
:100DE0005B0040EA010062F17F02FD2A1DD8B3F1E9
:100DF000004F40EBC25008BF20F00100704790F058
:100E0000000F0CF0004C08BF49024CEA502040EAA9
:100E100051207F3AC2BFD2F1FF0340EAC25070476F
:100E200040F400004FF00003013A5DDC12F1190FAD
:100E3000DCBF00F000407047C2F10002410021FA1F
:100E400002F1C2F1200200FA02FC5FEA310040F137
:100E5000000053EA4C0308BF20EADC70704792F0B0
:100E6000000F00F0004C02BF400010F4000F013AE8
:100E7000F9D040EA0C0093F0000F01F0004C02BFE3
:100E8000490011F4000F013BF9D041EA0C018FE752
:100E90000CEAD15392EA0C0F18BF93EA0C0F0AD058
:100EA00030F0004C18BF31F0004CD8D180EA01007E
:100EB00000F00040704790F0000F17BF90F0004F17
:100EC000084691F0000F91F0004F14D092EA0C0FF9
:100ED00001D142020FD193EA0C0F03D14B0218BF8C
:100EE000084608D180EA010000F0004040F0FE40D2
:100EF00040F40000704740F0FE4040F4400070476E
:100F00004FF0FF0C1CEAD0521EBF1CEAD15392EAEC
:100F10000C0F93EA0C0F69D0A2EB030280EA010CDC
:100F200049024FEA402037D04FF0805343EA111175
:100F300043EA10130CF000408B4238BF5B0042F1D3
:100F40007D024FF4000C8B4224BF5B1A40EA0C0078
:100F5000B3EB510F24BFA3EB510340EA5C00B3EBAA
:100F6000910F24BFA3EB910340EA9C00B3EBD10F98
:100F700024BFA3EBD10340EADC001B0118BF5FEAEA
:100F80001C1CE0D1FD2A3FF650AF8B4240EBC25013
:100F900008BF20F0010070470CF0004C4CEA5020D4
:100FA0007F32C2BFD2F1FF0340EAC250704740F423
:100FB00000004FF00003013A37E792F0000F00F015
:100FC000004C02BF400010F4000F013AF9D040EA93
:100FD0000C0093F0000F01F0004C02BF490011F427
:100FE000000F013BF9D041EA0C0195E70CEAD1531F
:100FF00092EA0C0F08D142027FF47DAF93EA0C0F06
:101000007FF470AF084676E793EA0C0F04D14B02E9
:101010003FF44CAF08466EE730F0004C18BF31F09B
:10102000004CCAD130F000427FF45CAF31F0004395
:101030007FF43CAF5FE700BF4FF0FF3C06E000BF2E
:101040004FF0010C02E000BF4FF0010C4DF804CD51
:101050004FEA40024FEA41037FEA226C18BF7FEA61
:10106000236C11D001B052EA530C18BF90EA010F63
:1010700058BFB2EB030088BFC81738BF6FEAE170F2
:1010800018BF40F0010070477FEA226C02D15FEA8E
:10109000402C05D17FEA236CE4D15FEA412CE1D0FA
:1010A0005DF8040B704700BF844608466146FFE7C1
:1010B0000FB5FFF7C9FF002848BF10F1000F0FBDA3
:1010C0004DF808EDFFF7F4FF0CBF012000205DF89C
:1010D00008FB00BF4DF808EDFFF7EAFF34BF012021
:1010E00000205DF808FB00BF4DF808EDFFF7E0FFBA
:1010F00094BF012000205DF808FB00BF4DF808ED0B
:10110000FFF7D2FF94BF012000205DF808FB00BF6D
:101110004DF808EDFFF7C8FF34BF012000205DF84F
:1011200008FB00BF42000ED2B2F1FE4F0BD34FF0CE
:101130009E03B3EB126209D44FEA002343F000434D
:1011400023FA02F070474FF00000704712F1610F70
:1011500001D1420202D14FF0FF3070474FF0000042
:10116000704700BF7BB972B90029BEBF00204FF0A5
:10117000004106E008BF00281CBF6FF000414FF09F
:10118000FF3000F0F5B9ADF1080C6DE904CE00298F
:1011900009DB002B1ADB00F06BF8DDF804E0DDE979
:1011A000022304B07047404261EB4101002B1BDB7E
:1011B00000F05EF8DDF804E0DDE9022304B040420F
:1011C00061EB4101524263EB43037047524263EBD0
:1011D000430300F04DF8DDF804E0DDE9022304B03C
:1011E000404261EB41017047524263EB430300F020
:1011F0003FF8DDF804E0DDE9022304B0524263EB7E
:101200004303704738B50022002304460D46FFF71C
:10121000DFFB28B920462946BDE8384000F00AB86F
:10122000204605F1004100F005F8404261EB410124
:1012300038BD00BFD0B500220B4B06460F46FFF766
:1012400055F9FFF72BFC0446FFF7D6F80022074BB1
:10125000FFF74CF902460B4630463946FEF78EFF43
:10126000FFF71CFC2146D0BD0000F03D0000F0411E
:101270002DE9F047089D8E4604468846002B4AD14A
:101280008A42174662D9B2FA82F64EB1C6F12003FD
:1012900001FA06F820FA03F3B74043EA0808B4401D
:1012A0004FEA174EB8FBFEF11FFA87FC0EFB1188C0
:1012B00001FB0CF2230C43EA08439A4209D9FB18BC
:1012C00001F1FF3080F0EB809A4240F2E880023971
:1012D0003B449A1AB2FBFEF00EFB102200FB0CFC02
:1012E000A3B243EA02439C4509D9FB1800F1FF323F
:1012F00080F0D7809C4540F2D4803B44023840EADD
:1013000001400021A3EB0C031DB10022F340C5E90D
:101310000032BDE8F0878B4205D90DB1C5E9000167
:1013200000210846F5E7B3FA83F1002946D1734559
:1013300002D3824200F20881841A6EEB030201207C
:101340009046002DE5D0C5E90048E2E7002A00F00C
:101350009180B2FA82F6002E40F0A5808A1A01210F
:10136000030C4FEA174E80B2BCB2B2FBFEFC0EFB80
:101370001C2243EA024304FB0CF29A4207D9FB18F1
:101380000CF1FF3802D29A4200F2E380C4469B1A65
:10139000B3FBFEF20EFB123302FB04F440EA0343FC
:1013A0009C4207D9FB1802F1FF3002D29C4200F2A6
:1013B000CD8002461B1B42EA0C40A5E7C1F1200686
:1013C0008B4022FA06F71F432EFA06FA4FEA174916
:1013D000BAFBF9F80EFA01FE20FA06F309FB18AA87
:1013E0001FFA87FC43EA0E0300FA01FE08FB0CF02B
:1013F0001C0C44EA0A44A04202FA01F20AD93C1940
:1014000008F1FF3A80F09E80A04240F29B80A8F154
:1014100002083C44241A98B2B4FBF9F309FB1344C4
:1014200003FB0CFC40EA0444A44509D93C1903F130
:10143000FF3080F08580A44540F28280023B3C442E
:1014400043EA0840A4EB0C04A0FB028C644543462D
:10145000E14664D361D05DB1BEEB030264EB0904E5
:1014600004FA06F622FA01F31E43CC40C5E90064F3
:1014700000214EE7B1FBF2FC010C41EA0E4180B2C3
:1014800040EA01423B46B1FBF7F138463C46B846DC
:10149000BE462026A2EB080241EA0C4165E7014660
:1014A00017E710462BE7C6F120012EFA01FCB740E2
:1014B0000EFA06FE20FA01F141EA0E014FEA174E3C
:1014C000BCFBFEF8BCB20EFB18CC08FB04F90A0CFE
:1014D00042EA0C42B04091454FEA104380B23ED9F7
:1014E000BA1808F1FF3C01D291451FD8A2EB0902BE
:1014F000B2FBFEF909FB04F80EFB192A8AB242EA94
:101500000A42424529D2BA1809F1FF31C2D24245F6
:10151000C0D2A9F102013A44BCE7C6459BD2B8EB60
:1015200002036CEB070C0138E14694E7A7EB0909CD
:101530004A44B2FBFEF9A8F1020C09FB04F8DBE710
:1015400003467DE7D04665E70846FAE63B44023AA3
:1015500030E7ACF1020C3B4419E749469AE7A2EBAD
:101560000902B2FBFEF9C44609FB04F8C4E700BF58
:10157000704700BF80B584B000AF3B1D00221A60E9
:101580005A609A60184B194A1A60174B00229A60E9
:10159000154B00221A73144B00221A75124B4FF48C
:1015A0006022DA61104B00225A600F4B01221A614F
:1015B0000D4802F0EFFF0346002B01D002F0ECFAD9
:1015C00008237B600123BB600023FB603B1D1946A1
:1015D000054803F0A3FA0346002B01D002F0DCFA21
:1015E00000BF1037BD4680BD7403002000280140B5
:1015F00080B588B000AF786007F1100300221A6050
:101600005A609A60DA607B681B68144A934221D161
:10161000134B9B69124A43F480639361104B9B699F
:1016200003F48063FB60FB680D4B9B690C4A43F03D
:10163000080393610A4B9B6903F00803BB60BB6816
:1016400001233B6103237B6107F110031946054821
:1016500003F08AFF00BF2037BD4680BD002801404F
:1016600000100240000C014080B584B000AF7860EB
:1016700039602A497868FEF76BFD0346002B0BD1D1
:1016800007F10C031A46264938680DF0EFF9FB689C
:10169000244A136000233DE023497868FEF758FD93
:1016A0000346002B0BD107F10C031A461C4938687E
:1016B0000DF0DCF9FB681B4A536000232AE01B494C
:1016C0007868FEF745FD0346002B0BD107F10C03AC
:1016D0001A46134938680DF0C9F9FB68114A93603E
:1016E000002317E012497868FEF732FD0346002B0D
:1016F0000BD107F108031A460E4938680DF0B6F908
:10170000BB68084AD360002304E000210A4806F0C1
:10171000A9F9012318461037BD4680BDEC480108E1
:10172000F448010830040020F84801080049010885
:101730000849010814490108BC05002080B584B09F
:1017400000AF78607B68002B03D07B681B78002B90
:1017500001D1002338E07B68FB601D49F8680DF07B
:101760008BFA0346002B01D002232DE01949F868BB
:101770000DF082FA0346002B01D0032324E0164922
:10178000F868FEF7E5FC0346002B01D101231BE0BE
:101790001249F868FEF7DCFC0346002B01D1042354
:1017A00012E00F49F868FEF7D3FC0346002B01D185
:1017B000052309E00B49F868FEF7CAFC0346002B35
:1017C00001D1062300E0002318461037BD4680BD36
:1017D0001849010824490108304901083C49010819
:1017E000484901085849010880B584B000AF7860C5
:1017F0007B681B68214A93423CD10023FB60204B4D
:101800001B784E2B29D81E4B1B785A1CD1B21C4A70
:1018100011701A461B4B19781B4B9954194B1B78A6
:101820000A2B22D1164B1B781A46174B00219954CC
:10183000164B1B68002B07D0144B186807F10C02DD
:101840000023114908F064FB0D4B00221A7050224E
:1018500000210D480DF07BF907E0094B00221A70BA
:101860005022002108480DF072F90122054908486C
:1018700007F0E8F800BF1037BD4680BD00440040C7
:10188000F8030020A4030020A80300204004002047
:10189000DC06002080B400AF094B1B68094A1360C6
:1018A000074B5B68084A1360054B9B68074A136047
:1018B000034BDB68064A136000BFBD4680BC70471F
:1018C000300400205C040020600400206404002038
:1018D0001000002080B586B002AFF860B9607A6071
:1018E000FB685B6903F26C72FB681B69591CFB683F
:1018F000DB6800930B461049B8680DF095F8FB685B
:101900009A68FB685968FB681B6800930B460B4993
:1019100078680DF089F80223BA68012118200BF0CD
:10192000C1FD02237A68052120200BF0BBFD00BF1A
:101930001037BD4680BD00BF6449010874490108E5
:1019400080B582B000AF78603960134B1B681846D1
:10195000FEF774FD02460B46104978680DF064F8F6
:101960000F4B1B681846FEF769FD02460B460D49F2
:1019700038680DF059F802237A6801210A200BF02B
:1019800091FD02233A6805210A200BF08BFD00BF70
:101990000837BD4680BD00BF6004002084490108AF
:1019A0005C0400209449010880B483B000AF7860E3
:1019B00039603B680A2B8CBF01220022D2B2002A78
:1019C00018D1012202FA03F303F4A562002A14BF1E
:1019D00001220022D2B2002A0AD103F00203002B16
:1019E00014BF01230023DBB2002B03D01C2302E031
:1019F0001E2300E01F2318460C37BD4680BC7047ED
:101A000080B500AF0C4802F09DFE0346002B01D0CC
:101A100002F0C2F80A21084802F06EFF0346002BCC
:101A200005D1054803F06EF80346044A13600248E6
:101A300002F036FF00BF80BD7403002008040020C0
:101A400080B582B000AFFFF7DBFF104B1B68184674
:101A5000FFF74AF903460E491846FFF79DF903467A
:101A60000C491846FFF74CFA03467B600A49786830
:101A7000FFF792F9034609491846FFF741FA034672
:101A80003B603B6818460837BD4680BD080400200F
:101A90003333534000F07F4500C08F45000061455F
:101AA00080B500AF002250210A2008F0D0F803468C
:101AB000244A136001222449244806F0C3FF244A23
:101AC0000221102007F087FE0346224A1360224AB3
:101AD0000021224807F0D2FD0346214A1360214A23
:101AE0000021214807F0CAFD0346204A1360204A1E
:101AF0000021204807F0C2FD03461F4A13601F4A19
:101B000000211F4807F0BAFD03461E4A13601E4A13
:101B100000211E4807F0B2FD03461D4A13601D4A0E
:101B200000211D4807F0AAFD03461C4A13601C4A09
:101B300000211C4807F0A2FD03461B4A136000BFAA
:101B400080BD00BF40040020A4030020DC0600206C
:101B5000D44C0108AC040020D84B0108AD1B000890
:101B600090040020FC4B0108791F00089404002019
:101B7000204C0108D91F000898040020444C01089B
:101B8000B52300089C040020684C0108392800088F
:101B9000A00400208C4C0108992B0008A40400200C
:101BA000B04C0108B1300008A804002090B5C1B0C5
:101BB00004AF786007F198033222002118460CF038
:101BC000C6FFD2480BF040FF0346002B01D1FFF7C0
:101BD00061FE002387F8E73007F148035022002117
:101BE00018460CF0B4FFCA4B1B680022C9491846BE
:101BF00008F02CFAC7F8E000D7F8E030012B40F0ED
:101C0000B481C448FFF79AFD034687F8E73097F898
:101C1000E730013B052B00F2A58101A252F823F029
:101C2000391C0008411C0008031D00084D1F000856
:101C3000551F00085D1F0008B74B00221A7094E181
:101C4000B649B4480DF018F803460B33C7F8CC304A
:101C5000D7F8CC30002B00F08781B149D7F8CC0001
:101C60000CF08AFF0246D7F8CC30134400221A70D9
:101C700007F10C032422002118460CF068FF07F13D
:101C80000C0303F1100107F10C0303F1140207F137
:101C90000C03039307F10C030433029307F10C03C5
:101CA0000833019307F10C030C3300930B469D4955
:101CB000D7F8CC000CF0DAFE3B6AA3F26C733B62FF
:101CC000FB69013BFB61FB680133FB6007F10C031F
:101CD00018460BF0A9FD07F19803D7F8CC209249DC
:101CE00018460CF0A1FE07F198031846FEF73AFAE1
:101CF00003469AB207F1980164238C4806F017FE58
:101D000032E18B4983480CF0B7FF03460B33C7F829
:101D1000DC30D7F8DC30002B13D107F1980385496C
:101D200018460CF081FE07F198031846FEF71AFAE0
:101D300003469AB207F1980164237C4806F0F7FD48
:101D400013E17749D7F8DC000CF016FF0246D7F80C
:101D5000DC30134400221A7007F148034F22D7F8F1
:101D6000DC1018460CF019FF002387F89730642325
:101D7000062271496D4806F0DAFD07F1480318465E
:101D8000FEF7F0F903469AB207F148016423674869
:101D900006F0CDFD07F14803684918460CF010FF26
:101DA000C7F8EC000123C7F8E8300AF027F873E021
:101DB0003A21D7F8EC000CF0D2FEC7F8D800D7F8DB
:101DC000D830002B03D10023C7F8E8306DE007F1CD
:101DD0003C0300221A605A601A81D7F8D820D7F83D
:101DE000EC30D31AC7F8D430D7F8D42007F13C032D
:101DF000D7F8EC1018460CF0D0FE07F13C02D7F8EB
:101E0000D430134400221A7007F1300300221A6004
:101E10005A601A81D7F8D8305C1CD7F8D830013313
:101E20001846FEF79FF9024607F13003214618468F
:101E30000CF0B3FED7F8D83001331846FEF792F90C
:101E40000346F0333B44002203F8C02C07F13C0367
:101E50001B78002B16D007F130031B78002B11D014
:101E600007F1300207F13C0311461846FFF7FCFB6F
:101E7000C7F8D000D7F8D030002B07D00023C7F820
:101E8000E83012E00023C7F8E8300EE02B490020CC
:101E90000CF096FEC7F8EC00D7F8EC30002B04D01D
:101EA000D7F8EC301B78002B82D109F0D7FFD7F898
:101EB000E830002B15D015480BF07AFD0346002BB7
:101EC00008D1FFF7E7FC07F198031D4918460CF00D
:101ED000ABFD0CE007F198031A4918460CF0A4FD7D
:101EE00005E007F19803184918460CF09DFD07F12D
:101EF00098031846FEF736F903469AB207F198019F
:101F000064230A4806F013FD2FE000BF30040020D0
:101F100040040020A8030020F9030020184901080C
:101F2000A4490108A8490108BC490108DC060020B1
:101F300024490108CC490108E4490108EC49010899
:101F4000F0490108084A0108244A0108094B012206
:101F50001A700AE0074B02221A7006E0054B0322B2
:101F60001A7002E000BF00E000BF642007F018FC18
:101F700039E600BFF903002080B582B000AF786079
:101F80000221134803F074FC0346002B19D14FF4CF
:101F9000167007F005FC02210D4803F069FC0346AA
:101FA000002B03D10B4B02221A700DE002210848CE
:101FB00003F05EFC0346012B06D1064B01221A708A
:101FC00002E0044B00221A70322007F0E9FBD7E749
:101FD000000C0140FC03002080B596B002AF786091
:101FE00007F12C031E22002118460CF0B0FD07F16A
:101FF0000C031E22002118460CF0A9FD9B4B1B78F8
:10200000DBB2002B05D19A4B1B78DBB2002B00F022
:10201000B981964B1B78DBB2012B10D1944B1B7806
:10202000DBB2002B0BD1934B1B78DBB2002B06D01D
:10203000904B00221A708D4B00221A70A2E18B4B3C
:102040001B78DBB2022B2BD1894B1B78DBB2002B28
:1020500026D1884B1B78DBB2032B21D1864B1B6822
:10206000002B40F08F81824B03221A707F4B00229D
:102070001A70824B1B68184608F02AFC804B1B68BC
:10208000184608F025FC0BF0ECF97B4B01931B2361
:102090000093002320227B497B4808F085FA71E1F8
:1020A000724B1B78DBB2022B1CD1714B1B78DBB25D
:1020B000032B17D16E4B00221A706C4B00221A7042
:1020C0000BF0CFF96D4B1B68184608F0A9FC6F4B5D
:1020D0001B68184608F0A4FC694B1B68184608F0FA
:1020E0009FFC4FE1614B1B78DBB2022B50D1604B60
:1020F0001B78DBB2002B4BD15E4B1B78DBB2002B85
:1021000046D15B4B01221A70614B00221A700BF012
:10211000A1FBF8645F4AFB6C1360584B1B681846C0
:1021200008F0D6FB594B1B68184608F0D1FBFB6C36
:102130005B6903F26C72FB6C1B69591CFB6CDB68FE
:1021400007F12C0000930B4653490CF06DFCFB6C1F
:102150009A68FB6C5968FB6C1B6807F10C000093D4
:102160000B464E490CF060FC0BF07BF907F12C029A
:102170000223012118200BF095F907F10C0202232C
:10218000052120200BF08EF9384B00221A70F9E05F
:10219000364B1B78DBB2022B1DD1354B1B78DBB2E3
:1021A000012B18D1324B00221A70304B00221A70CA
:1021B000384B1B68FB64F86C0BF036FB0BF051F9E5
:1021C0002E4B1B68184608F02BFC304B1B6818463A
:1021D00008F026FCD6E0254B1B78DBB2022B69D138
:1021E000234B1B78DBB2002B64D1224B1B78DBB274
:1021F000012B5FD11E4B02221A70294B00221A704C
:102200000BF02FF91D4B1B68184608F061FB1F4BA4
:102210001B68184608F05CFB224B1B681846FEF74B
:102220000DF902460B4607F12C001F490CF0FCFB90
:102230001E4B1B681846FEF701F902460B4607F1D4
:102240000C001B490CF0F0FB07F12C0202230121CA
:102250000A200BF027F907F10C02022305210A20BE
:102260000BF020F9014B00221A708BE0FC030020D8
:10227000FB030020F903002044040020A4040020F4
:10228000A8040020404A01085D320008A004002094
:10229000FF03002004040020644901087449010878
:1022A0000004002060040020844901085C04002030
:1022B00094490108354B1B78DBB2022B22D1344BF9
:1022C0001B78DBB2022B1DD1314B00221A702F4B31
:1022D00000221A702F4B1B682F4A13602F4B1B686C
:1022E0002D4A53602C480BF063FB0BF0BAF82C4BD3
:1022F0001B68184608F094FB2A4B1B68184608F028
:102300008FFB3FE0214B1B78DBB2012B19D1204B17
:102310001B78DBB2012B14D1234B1B78DBB25A1C88
:10232000224B83FB0231D317C91A0B465B000B44C7
:102330005B00D11ACAB21C4B1A70144B00221A70DF
:1023400020E0124B1B78DBB2012B14D1104B1B7811
:10235000DBB2022B0FD1164B1B78DBB20133002B03
:1023600003F00103B8BF5B42DAB2114B1A70074B9E
:1023700000221A7006E0054B1B78DBB2002B01D15E
:10238000034B1B78C82007F00BFA37E6FC0300204C
:10239000FB0300205C0400203004002060040020C7
:1023A000A4040020A0040020FF030020ABAAAA2A56
:1023B0000004002080B596B000AF786007F12C03D0
:1023C0001E22002118460CF0C2FB07F10C031E224E
:1023D000002118460CF0BBFB0821914803F077FA66
:1023E000904B1B78DBB2002B33D18F4B1B78DBB2C9
:1023F000012B11D18D4B1B78DBB201335A4203F014
:10240000030302F0030258BF5342DAB2874B1A703B
:10241000854B00221A70FCE1854B1B78DBB2012B47
:1024200040F0F781814B1B78DBB2002B0DD07F4B46
:102430001B78DBB2013B5A4203F0030302F00302B4
:1024400058BF5342DAB2794B1A70794B00221A7096
:10245000DFE1744B1B78DBB2012B40F04781744BFA
:102460001B78DBB2012B40F09080724B1B78DBB203
:10247000052B7DD801A252F823F000BF9524000857
:10248000AF240008F32400080D25000827250008C4
:1024900041250008684B1B685B69002B5DDD664BBE
:1024A0001B685A69644B1B68013A5A6155E0624BDC
:1024B0001B681B69002B52DD5F4B1B681A695E4B62
:1024C0001B68013A1A615C4B1B685A695A4B1B68BE
:1024D0001B6919461046FFF767FAF864564B1B68EC
:1024E000DB68FA6C9A423ADA534B1B68FA6CDA6092
:1024F00035E0514B1B68DB68012B32DD4E4B1B680E
:10250000DA684D4B1B68013ADA602AE04A4B1B68D7
:102510009B68002B27DD484B1B689A68464B1B685D
:10252000013A9A601FE0444B1B685B68002B1CDD7E
:10253000414B1B685A68404B1B68013A5A6014E0D3
:102540003D4B1B681B68002B11DD3B4B1B681A6859
:10255000394B1B68013A1A6009E000BF08E000BF70
:1025600006E000BF04E000BF02E000BF00E000BFE3
:10257000314B1B6807F10C0207F12C011846FFF7DD
:10258000A9F92B4B00221A7043E1274B1B78DBB2D1
:10259000012B40F03E81274B1B78DBB2052B00F26C
:1025A000988001A252F823F0C1250008DB2500081D
:1025B0003D2600086F26000889260008A32600088B
:1025C0001D4B1B685B69C72B78DC1B4B1B685A696A
:1025D000194B1B6801325A6170E0174B1B681B696D
:1025E0000A2B6DDC144B1B681A69134B1B680132F4
:1025F0001A61114B1B685A690F4B1B681B691946FE
:102600001046FFF7D1F938650B4B1B68DB683A6D54
:102610009A4255DA084B1B683A6DDA6050E000BF09
:10262000000C0140FB030020FE030020F903002002
:10263000FD030020FF03002004040020774B1B68EB
:102640005A69764B1B681B6919461046FFF7ACF9AF
:102650007865724B1B68DB687A6D9A4232DD6F4B8E
:102660001B68DA686D4B1B680132DA602AE06B4B3D
:102670001B689B68162B27DC684B1B689A68674BA6
:102680001B6801329A601FE0644B1B685B683A2B41
:102690001CDC624B1B685A68604B1B6801325A6035
:1026A00014E05E4B1B681B683A2B11DC5B4B1B680C
:1026B0001A685A4B1B6801321A6009E000BF08E033
:1026C00000BF06E000BF04E000BF02E000BF00E082
:1026D00000BF524B1B6807F10C0207F12C01184692
:1026E000FFF7F8F84E4B00221A7092E04D4B1B7822
:1026F000DBB2022B40F08D804B4B1B78DBB2012B01
:1027000041D14A4B1B78DBB2002B02D0012B17D0F2
:102710002DE0474B1B684FF000011846FEF7F8FC10
:102720000346002B00D122E0414B1B684FF07E5145
:102730001846FEF727FA03461A463D4B1A6016E084
:102740003C4B1B684FF000011846FEF7E1FC0346C6
:10275000002B00D10AE0374B1B684FF07E51184622
:10276000FEF710FA03461A46324B1A6000BF07F113
:102770000C0207F12C0311461846FFF7E1F82A4B2B
:1027800000221A7045E0264B1B78DBB2012B40D1AA
:10279000264B1B78DBB2002B02D0012B17D02DE08B
:1027A000234B1B684FF000011846FEF7B1FC0346AF
:1027B000002B00D122E01E4B1B684FF07E511846C3
:1027C000FEF7E2F903461A46194B1A6016E0194B58
:1027D0001B684FF000011846FEF79AFC0346002BD9
:1027E00000D10AE0134B1B684FF07E511846FEF7EC
:1027F000CBF903461A460F4B1A6000BF07F10C02D3
:1028000007F12C0311461846FFF79AF8044B0022F3
:102810001A70322006F0C4FFDEE500BF0404002079
:10282000FE030020FB030020FD0300200004002025
:10283000600400205C0400202DE9F04FB3B008AF25
:10284000786007F10C039622002118460CF07FF9FE
:102850005E4805F01BF84FF00003C7F8A430FFF7FF
:10286000EFF8C7F8A4005A49D7F8A400FEF732FCE5
:102870000346002B04D0574B4FF000021A6012E0C1
:102880005349D7F8A400FEF77DF90346524918468C
:10289000FEF736FB034651491846FEF77DFA03461C
:1028A0001A464C4B1A604B4B1B684C491846FEF7B6
:1028B0002FFC0346002B02D0464B484A1A600AF010
:1028C000C9FF0346464A1360454B1B685B6903F228
:1028D0006C76434B1B681B690133414A1268D2680E
:1028E0003F49096889683E48006840683C4C246854
:1028F000246807F10C05049403900291019200935F
:102900003346384A962128460CF058F807F10C0354
:102910001846FDF727FC03469AB207F10C01642321
:10292000314806F004F807F10C03962200211846FE
:102930000CF00DF909F034FF02460B46104619461B
:10294000FEF7CCF80346294A13600AF0A3FA0346BF
:10295000274A136009F064FF02460B4610461946E9
:10296000FEF7BCF80346234A1360204B1B68224A3B
:10297000126811461846FEF7CBFB0346002B03D026
:102980001E4B01221A7011E0184B1B681C4A12687A
:1029900011461846FEF79EFB0346002B03D0174B4B
:1029A00002221A7002E0154B00221A70114B1B68AC
:1029B000144A126811461846FEF78CFB0346002B9A
:1029C00024D0114B01221A7023E000BFBC05002067
:1029D00000004040800400209899993F0000C842C0
:1029E0000C0400204C4A0108DC06002048040020AA
:1029F000580400204C0400205C04002050040020F7
:102A0000600400206404002051040020544B002284
:102A10001A70544B1B68544A126811461846FEF748
:102A20006FFA03461846FDF709FD49A3D3E90023D1
:102A300011F00CF802460B464FF000004B49FDF731
:102A40009DFB02460B461046194643A3D3E90023DB
:102A5000FDF74CFD02460B4610461946FEF73EF8C0
:102A60000346434A1360434B1B681846FDF7E6FCD8
:102A700004460D46404B1B681846FDF7DFFC8046B8
:102A80008946384B1B681846FDF7D8FC82468B46B2
:102A9000374B1B681846FDF7D1FC02460B4607F181
:102AA0000C00CDE90623CDE904ABCDE90289CDE9DF
:102AB0000045324A96210BF081FF07F10C031846BE
:102AC000FDF750FB03469AB207F10C0164232C4832
:102AD00005F02DFF07F10C039622002118460CF09B
:102AE00036F8284B1B681846FDF7A8FC04460D462F
:102AF000254B1B681846FDF7A1FC80468946234BF1
:102B00001B681846FDF79AFC02460B4620490968E7
:102B100007F10C000691CDE90423CDE90289CDE946
:102B200000451C4A96210BF049FF07F10C0318469B
:102B3000FDF718FB03469AB207F10C016423104815
:102B400005F0F5FE4FF47A7006F02AFE87E600BF26
:102B50006C45D9CC955BC83F0000000040A5E5401E
:102B6000510400204C0400200C0000200000F03F25
:102B7000540400205804002048040020704A010832
:102B8000DC0600205C0400206004002064040020B7
:102B900010000020B04A01082DE9B0439EB004AFF8
:102BA00078600AF05EFC07F148031E2200211846F7
:102BB0000BF0CDFF07F128031E22002118460BF071
:102BC000C6FF07F108031E22002118460BF0BFFFC5
:102BD0008A4B1B78DBB2032B00F2398201A252F838
:102BE00023F000BFF52B0008012D0008512E00082E
:102BF000592F0008814B1B78DAB2814B1B78DBB26E
:102C00009A4201D00AF02DFC0AF024FE03467D4AC8
:102C100013607C4B1B685B6903F26C72794B1B6819
:102C20001B69591C774B1B68DB6807F14800009350
:102C30000B4675490BF0F8FE724B1B689A68714B96
:102C40001B6859686F4B1B681B6807F128000093CD
:102C50000B466E490BF0E8FE6D4B1B681846FDF7FE
:102C6000EDFB02460B4607F108006A490BF0DCFE5B
:102C700007F108020123002132200AF013FC07F1BA
:102C800048020223012118200AF00CFC07F1280257
:102C90000223032120200AF005FC5F4B1B78012B47
:102CA00006D101235D4A062100200AF0FBFB10E05B
:102CB000594B1B78022B06D10123594A06210020CB
:102CC0000AF0F0FB05E00123564A062100200AF035
:102CD000E9FB554B1B78012B06D10123534A0621F2
:102CE00032200AF0DFFB05E00123514A06213220A1
:102CF0000AF0D8FB414B1B78DAB2414B1A70A6E1BF
:102D00003E4B1B78DAB23E4B1B78DBB29A4201D0C5
:102D10000AF0A7FB09F044FD02460B46104619468F
:102D2000FDF7DCFE0346434A13600AF0B3F803469E
:102D3000414A13603F4B1B681846FDF77FFB024674
:102D40000B4607F148003D490BF06EFE3A4B1B68FD
:102D50001846FDF773FB02460B4607F12800384979
:102D60000BF062FE2A4B1B681846FDF767FB024614
:102D70000B4607F1080027490BF056FE07F1080241
:102D80000123002132200AF08DFB02230A220121B7
:102D900030200AF075FC07F14802022303210020CD
:102DA0000AF080FB07F128020223052100200AF027
:102DB00079FB244B1B681846FDF740FB04460D4683
:102DC000214B1B681846FDF739FB02460B4607F1FD
:102DD0002800CDE9002322462B461C490BF024FE97
:102DE00007F128020123072100200AF05BFB034BB7
:102DF0001B78DAB2024B1A7029E100BFF9030020F8
:102E0000FA0300200C0400206449010874490108F9
:102E100080040020EC4A010850040020F84A010810
:102E2000004B0108084B010851040020104B010819
:102E3000184B01084804002058040020204B0108CA
:102E4000304B0108600400205C040020404B010866
:102E5000854B1B78DAB2854B1B78DBB29A4201D0E6
:102E60000AF0FFFA09F0DCFC02460B461046194650
:102E7000FDF734FE03467E4A13607D4B1B687D4A96
:102E8000126811461846FEF73BF803461846FDF750
:102E9000D5FA71A3D3E9002310F0D8FD02460B4602
:102EA0004FF000007449FDF769F902460B461046E1
:102EB00019466BA3D3E90023FDF718FB02460B4626
:102EC00010461946FDF70AFE03466C4A1360684B2C
:102ED0001B681846FDF7B2FA02460B4607F1480098
:102EE00067490BF0A1FD654B1B681846FDF7A6FA74
:102EF00002460B4607F1280062490BF095FD624B34
:102F00001B681846FDF79AFA02460B4607F10800BF
:102F10005E490BF089FD07F10802012300213220F0
:102F20000AF0C0FA02230C22022130200AF0A8FB8A
:102F300007F148020223042100200AF0B3FA07F146
:102F400028020223062100200AF0ACFA464B1B7827
:102F5000DAB2464B1A707AE0434B1B78DAB2434B35
:102F60001B78DBB29A4201D00AF07BFA484B0193FE
:102F7000484B0093484B494A49494A4809F0F0FFF9
:102F8000484B1B681846FDF759FA80468946444B62
:102F90001B681846FDF752FA04460D463F4B1B6866
:102FA0001846FDF74BFA02460B4607F14800CDE9FB
:102FB0000223CDE9004542464B463B490BF034FD28
:102FC000354B1B681846FDF739FA80468946314B68
:102FD0001B681846FDF732FA04460D462C4B1B6859
:102FE0001846FDF72BFA02460B4607F12800CDE9FB
:102FF0000223CDE9004542464B462B490BF014FD18
:10300000214B1B681846FDF719FA02460B4607F1DB
:10301000080026490BF008FD07F1080202230021F1
:1030200024200AF03FFA07F148020223042100207D
:103030000AF038FA07F128020223062100200AF0DC
:1030400031FA094B1B78DAB2084B1A7000BFC8205E
:1030500006F0A6FBBCE500BF6C45D9CC955BC83F2C
:103060000000000040A5E540F9030020FA0300201D
:103070004C0400200C0000200000F03F540400200D
:10308000544B0108644B010880040020EC4A0108FD
:103090007C040020780400207404002070040020C8
:1030A0006C04002068040020744B0108844B010864
:1030B00080B58AB002AF78604C4B01934C4B0093C3
:1030C0004C4B4D4A4D494E4809F04AFF4C4B1B684A
:1030D0004C4A1360494B1B684B4A1360464B1B68B4
:1030E0004A4A136007F018FEF861404B0193404BC9
:1030F0000093404B404A4149414809F031FF404B61
:103100001B68404A126811461846FDF73BFD03460E
:1031100023F00043BB61394B1B683B4A12681146E0
:103120001846FDF72FFD034623F000437B61324B29
:103130001B68364A126811461846FDF723FD034600
:1031400023F000433B617969B869FDF71DFD034633
:1031500019463869FDF718FD0346FB602C4B1B78B8
:10316000012B1BD12B49F868FDF7D2FF0346002B3A
:1031700003D007F0D1FDF86123E007F0CDFD024652
:10318000FB69D31ABB60244B1B68BA689A4218D3F8
:103190000AF07BF91E4B00221A7012E01C4B1B78C0
:1031A000002B0ED11B49F868FDF7B2FF0346002B38
:1031B00007D00AF05DF9164B01221A7007F0ACFD3A
:1031C000F861164B1B680133144A13600C4B1B68E3
:1031D0000C4A1360094B1B680B4A1360064B1B68B3
:1031E0000A4A1360642006F0DBFA7EE77C040020C4
:1031F0007804002074040020700400206C04002077
:103200006804002084040020880400208C0400202E
:1032100000000020CDCC4C3E100000201400002007
:1032200080B485B000AF78600023FB600CE0002321
:10323000BB6002E0BB680133BB60BB68B3F57A7F5B
:10324000F8D3FB680133FB60FA687B689A42EED3DF
:1032500000BF00BF1437BD4680BC704790B599B021
:1032600002AF7860002387F857304FF000033B65CA
:103270000023FB640023BB64002387F8473000234E
:103280003B640023FB630AF0ECF80123C24A0721E8
:1032900000200AF007F9002387F85730002387F849
:1032A0003B300EE097F83B20BC4913465B001344CB
:1032B0000B44023300221A7097F83B30013387F831
:1032C0003B3097F83B30092BECD943F239033B6490
:1032D00097F84730012B1CD10AF0C3F80123B04AFC
:1032E000032128200AF0DEF807F12403FA6BAD4928
:1032F00018460BF099FB07F12402012305212D202C
:103300000AF0D0F84FF47A7006F04AFA002007F07D
:10331000DFFA07F1140407F1180207F11C0107F1A5
:10332000200007F10C03019307F1100300932346DB
:1033300009F016FE3B6A83F000439B491846FDF7EF
:103340002BFD03461C469949386DFDF725FD0346C4
:1033500019462046FDF718FC03463B653B6D7B6331
:103360009349786BFDF7B6FE0346002B01D0904BD6
:103370007B634FF07E51786BFDF7CAFE0346002B4E
:1033800002D04FF07E537B634FF07E51786BFDF798
:10339000FBFB03464FF080411846FDF7B1FD0346A5
:1033A00084491846FDF7F8FC03464FF00001184623
:1033B000FDF7EAFB03461846FDF7B4FE034687F81F
:1033C000303097F8302097F85730D31A002BB8BF19
:1033D0005B42022B11DD97F857000123764A072143
:1033E0000AF060F897F8300001236B4A07210AF0D1
:1033F00059F897F8303087F857301420FFF710FF4E
:10340000FB6C1433FB64BB6C1433BB646B4B1B68E9
:103410001A46FB6C934268D33B6C07333B64002332
:1034200087F8333052E097F833205C4913465B004D
:1034300013440B4402331B78002B42D10AF05AFB91
:1034400001465F4B83FB01231A11CB17D21A134697
:103450005B019B1A9B009B1ACA1A97F83310D0B2D3
:103460004E4A0B465B000B44134402461A7097F811
:1034700033204A4913465B0013440B4401330022B6
:103480001A7097F83320454913465B0013440B44E8
:10349000023301221A7097F83320404913465B002B
:1034A00013440B44187897F833203C4913465B00CB
:1034B00013440B44013319780123424A09F0F2FF07
:1034C00008E097F83330013387F8333097F833301A
:1034D000092BA8D90023FB64384B1B68152B04DD8E
:1034E000364B1B68013B354A1360374B1B681A4645
:1034F000BB6C9342C0F09480002387F832307FE0A9
:1035000097F83220254913465B0013440B440233DD
:103510001B78012B6FD197F83220204913465B00AE
:1035200013440B44187897F832201C4913465B006B
:1035300013440B440133197801231F4A09F0B2FFE9
:1035400097F83220154913465B0013440B440133AE
:103550001B780133D8B2114913465B0013440B4466
:10356000013302461A7097F832200C4913465B006B
:1035700013440B4401331B78072B27D997F83220CB
:10358000064913465B0013440B44023300221A70B1
:10359000FB6B0133FB632EE0904B0108100400200D
:1035A000944B0108A04B01083333333F9A99993E5D
:1035B000000080BF0000F442AC4B0108080000206E
:1035C00015024D21B04B01080400002097F832206D
:1035D000364913465B0013440B44187897F83220A1
:1035E000324913465B0013440B440133197801231D
:1035F0002F4A09F057FF97F83230013387F83230FD
:1036000097F83230092B7FF67BAF0023BB64294B40
:103610001B68142B04DD274B1B68013B254A1360F4
:10362000002387F831303BE097F831201F491346DB
:103630005B0013440B4402331B78012B2BD197F80A
:1036400031201A4913465B0013440B4401331B78A5
:10365000072B20D197F83120144913465B001344FF
:103660000B441B781A4697F85730D31A13F1050FFD
:1036700011DB97F831200D4913465B0013440B44CE
:103680001B781A4697F85730D31A052B03DC012311
:1036900087F8473008E097F83130013387F8313048
:1036A00097F83130092BBFD912E600BF1004002073
:1036B000B04B01080400002080B582B000AF034683
:1036C000FB800021164804F0CDF9FB88022B0FD1B6
:1036D0000221144802F0CCF80346002B03D1124B10
:1036E00001221A7018E000210D4804F05DFA13E081
:1036F000FB88B3F5807F0FD14FF480710B4802F047
:10370000B7F80346002B03D1094B01221A7003E0DE
:103710000021034804F048FA00BF0837BD4680BDC9
:10372000BC05002000080140FD030020000C014002
:10373000FE03002080B588B000AF07F1100300221F
:103740001A605A609A60DA60544B9B69534A43F09E
:1037500010039361514B9B6903F01003FB60FB68FE
:103760004E4B9B694D4A43F0200393614B4B9B6941
:1037700003F02003BB60BB68484B9B69474A43F09A
:1037800004039361454B9B6903F004037B607B68F2
:10379000424B9B69414A43F0080393613F4B9B694D
:1037A00003F008033B603B68002201213C4802F023
:1037B00076F8002238213B4802F071F801233B6182
:1037C00011237B610123BB610223FB6107F110031D
:1037D0001946334801F0C8FE02233B61324B7B613E
:1037E0000123BB6107F1100319462D4801F0BCFE0F
:1037F00002233B6100237B610123BB6107F11003BE
:103800001946284801F0B0FE4FF401733B610023D4
:103810007B610023BB6107F110031946214801F0C9
:10382000A3FE08233B6101237B610023BB610223CC
:10383000FB6107F1100319461A4801F095FE302389
:103840003B6111237B610123BB610223FB6107F113
:1038500010031946134801F087FE4FF480733B6153
:10386000114B7B610123BB6107F1100319460D4821
:1038700001F07AFE00220521072001F098FB0720C5
:1038800001F0B1FB00220521172001F090FB172069
:1038900001F0A9FB00BF2037BD4680BD00100240EB
:1038A00000080140000C01400000311080B500AF5D
:1038B000124B134A1A60114B124A5A600F4B0022E6
:1038C0009A600E4B0022DA600C4B4FF480421A6172
:1038D0000A4B00225A61094B00229A61074B0022D1
:1038E000DA61064B00221A62044802F021F803460E
:1038F000002B01D000F050F900BF80BDB0040020C3
:1039000000540040A086010080B500AF124B134A5E
:103910001A60114B124A5A600F4B00229A600E4BEC
:103920000022DA600C4B4FF480421A610A4B0022ED
:103930005A61094B00229A61074B0022DA61064B5B
:1039400000221A62044801F0F3FF0346002B01D065
:1039500000F022F900BF80BD04050020005800409F
:10396000A086010080B58AB000AF786007F1180327
:1039700000221A605A609A60DA607B681B682B4AE2
:10398000934224D12A4B9B69294A43F0080393614F
:10399000274B9B6903F008037B617B69C023BB61F4
:1039A0001223FB6103237B6207F1180319462148A8
:1039B00001F0DAFD1E4BDB691D4A43F40013D361AD
:1039C0001B4BDB6903F400133B613B6929E07B6817
:1039D0001B68194A934224D1154B9B69144A43F042
:1039E00008039361124B9B6903F00803FB60FB68BB
:1039F0004FF44063BB611223FB6103237B6207F139
:103A0000180319460B4801F0AFFD094BDB69084A62
:103A100043F48003D361064BDB6903F48003BB608E
:103A2000BB6800BF2837BD4680BD00BF00540040C2
:103A300000100240000C01400058004080B500AF6B
:103A400000F052FD00F036F8FFF774FEFDF792FD2E
:103A5000FFF72CFFFFF758FF00F0A0FA00F03EFC44
:103A600000F066FC00F09EF800F01CFB00F066FB26
:103A70000D4803F00BFF0D4803F008FF09F042FC6E
:103A800008F0AAFC09F06AF909F0FCFE084B1B6873
:103A90004FF47A725A6305F0A9FDFEF701F805F0BC
:103AA000C7FD00BFFDE700BF040600204C06002054
:103AB000BC05002080B594B000AF07F12803282290
:103AC000002118460BF043F807F1140300221A6096
:103AD0005A609A60DA601A613B1D00221A605A60CF
:103AE0009A60DA600523BB624FF48033FB620023E7
:103AF0003B6301237B630123BB6302237B644FF49D
:103B00008033BB644FF4E013FB6407F128031846CD
:103B100002F080FF0346002B01D000F03DF80F2398
:103B20007B610223BB610023FB614FF480633B6236
:103B300000237B6207F114030221184603F0ECF91D
:103B40000346002B01D000F027F803237B604FF4DD
:103B50008073BB604FF40043FB603B1D184603F0CD
:103B600099FB0346002B01D000F016F800BF503738
:103B7000BD4680BD80B582B000AF78607B681B68B1
:103B8000044A934201D100F0C5FC00BF0837BD468E
:103B900080BD00BF0008004080B400AF72B600BF17
:103BA00000BFFDE780B500AF0A4B0B4A1A60094B16
:103BB0004FF0FF325A60074B4FF480729A6005480D
:103BC00003F0D4FC0346002B01D0FFF7E5FF00BF54
:103BD00080BD00BF580500200028004080B584B09B
:103BE00000AF78607B681B680B4A934210D102F0EB
:103BF00005FF0A4BDB69094A43F00063D361074BB9
:103C0000DB6903F00063FB60FB68054B01221A606F
:103C100000BF1037BD4680BD0028004000100240A4
:103C20003C04424280B584B000AF184B9B69174AF0
:103C300043F001039361154B9B6903F00103BB60E3
:103C4000BB68124BDB69114A43F08053D3610F4BC1
:103C5000DB6903F080537B607B6800220F216FF0EB
:103C6000010001F0A4F90A4B5B68FB60FB6823F0DC
:103C7000E063FB60FB6843F00073FB60044AFB6891
:103C8000536000BF1037BD4680BD00BF001002402A
:103C90000000014080B58EB000AF78600023FB6269
:103CA0000023BB62002387F83330344BDB69334A8F
:103CB00043F00403D361314BDB6903F00403FB6081
:103CC000FB6807F1100207F114031146184603F0D0
:103CD00093FA3B6AFB62FB6A002B03D103F064FAA0
:103CE000786304E003F060FA03465B007B637B6B60
:103CF000234AA2FB03239B0C013BBB62214B224ABC
:103D00001A60204B40F2E732DA601E4ABB6A536009
:103D10001C4B00221A611B4B00229A60194B002297
:103D20009A61184803F062FD034687F8333097F82C
:103D30003330002B1BD1134803F0F2FD034687F804
:103D4000333097F83330002B11D11E2001F04BF99E
:103D50007B680F2B08D8002279681E2001F027F914
:103D60000A4A7B68136002E0012387F8333097F832
:103D7000333018463837BD4680BD00BF00100240C2
:103D800083DE1B436C05002000080040200000205B
:103D900080B400AF00BFFDE780B400AF00BFFDE717
:103DA00080B400AF00BFFDE780B400AF00BFFDE707
:103DB00080B400AF00BFFDE780B400AF00BFBD46D8
:103DC00080BC704780B500AF022001F099FD00BFB4
:103DD00080BD80B500AF4FF4807001F091FD00BF51
:103DE00080BD000080B500AF024803F041FF00BF76
:103DF00080BD00BF6C05002080B500AF024804F014
:103E000047FE00BF80BD00BFDC06002080B400AFCD
:103E100001231846BD4680BC704780B582B000AF14
:103E2000786039600BF020FE034616221A604FF0CE
:103E3000FF3318460837BD4680BD80B582B000AF5D
:103E400078604FF0FF317868FFF7E7FF00BFFDE7CC
:103E500080B586B000AFF860B9607A6000237B61FE
:103E60000AE0AFF300800146BB685A1CBA60CAB2D0
:103E70001A707B6901337B617A697B689A42F0DB57
:103E80007B6818461837BD4680BD80B586B000AF48
:103E9000F860B9607A6000237B6109E0BB685A1C56
:103EA000BA601B781846AFF300807B6901337B61F1
:103EB0007A697B689A42F1DB7B6818461837BD4601
:103EC00080BD80B483B000AF78604FF0FF331846F8
:103ED0000C37BD4680BC704780B483B000AF7860BB
:103EE00039603B684FF400525A60002318460C3783
:103EF000BD4680BC704780B483B000AF78600123BA
:103F000018460C37BD4680BC704780B485B000AF02
:103F1000F860B9607A60002318461437BD4680BC4B
:103F20007047000080B586B000AF7860144A154B2A
:103F3000D31A7B617B693B61134B1B68002B02D159
:103F4000114B124A1A60104B1A687B6813443A6985
:103F50009A4207D20BF088FD03460C221A604FF0FC
:103F6000FF3309E0084B1B68FB60074B1A687B684E
:103F70001344054A1360FB6818461837BD4680BDD8
:103F80000050002000040000B8050020C03E0020C2
:103F900080B400AF00BFBD4680BC704780B592B012
:103FA00000AF07F1400300221A605A6007F12403B2
:103FB00000221A605A609A60DA601A615A619A6146
:103FC0003B1D2022002118460AF0C1FD334B344A24
:103FD0001A60324B00225A60304B00229A602F4BFD
:103FE0004FF6FF72DA602D4B00221A612B4B002234
:103FF0005A612A4B00229A61284803F0E3FC0346E9
:10400000002B01D0FFF7C8FD00233B6400237B6435
:1040100007F140031946214804F078FB0346002BC2
:1040200001D0FFF7B9FD60237B620023BB62002350
:10403000FB6200233B6300237B630023BB630023FD
:10404000FB6307F1240300221946144803F000FF24
:104050000346002B01D0FFF79FFD00237B60002368
:10406000BB600023FB6000233B6100237B614FF4B6
:104070000053BB6100233B623B1D1946074804F017
:10408000A3FB0346002B01D0FFF786FD034800F099
:10409000F1F800BF4837BD4680BD00BFBC05002019
:1040A000002C014080B586B000AF07F10803002264
:1040B0001A605A609A60DA603B4600221A605A60C1
:1040C0001D4B4FF080421A601B4B47225A601A4B1F
:1040D00000229A60184B4FF6FF72DA60164B0022EE
:1040E0001A61154B80229A61134803F07FFB034647
:1040F000002B01D0FFF750FD4FF48053BB6007F158
:10410000080319460C4803F065FF0346002B01D055
:10411000FFF742FD00233B6000237B603B461946CE
:10412000054804F0F3FA0346002B01D0FFF734FDF5
:1041300000BF1837BD4680BD0406002080B586B09C
:1041400000AF07F1080300221A605A609A60DA6033
:104150003B4600221A605A601D4B1E4A1A601C4BD7
:1041600000225A601A4B00229A60194B4FF6FF72D8
:10417000DA60174B00221A61154B00229A6114482D
:1041800003F034FB0346002B01D0FFF705FD4FF48D
:104190008053BB6007F1080319460D4803F01AFF6E
:1041A0000346002B01D0FFF7F7FC00233B60002300
:1041B0007B603B461946064804F0A8FA0346002BEC
:1041C00001D0FFF7E9FC00BF1837BD4680BD00BF36
:1041D0004C0600200004004080B485B000AF786039
:1041E0007B681B68094A93420BD1094B9B69084ABB
:1041F00043F400639361064B9B6903F40063FB6027
:10420000FB6800BF1437BD4680BC7047002C0140DE
:104210000010024080B485B000AF78607B681B68F6
:10422000B3F1804F0CD1114BDB69104A43F001030D
:10423000D3610E4BDB6903F00103FB60FB6810E008
:104240007B681B680A4A93420BD1084BDB69074A1B
:1042500043F00203D361054BDB6903F00203BB604B
:10426000BB6800BF1437BD4680BC704700100240D9
:104270000004004080B588B000AF786007F11003FB
:1042800000221A605A609A60DA607B681B68104AE4
:10429000934218D10F4B9B690E4A43F0040393617C
:1042A0000C4B9B6903F00403FB60FB684FF48073C5
:1042B0003B6102237B610223FB6107F11003194676
:1042C000054801F051F900BF2037BD4680BD00BF51
:1042D000002C0140001002400008014080B500AFF2
:1042E000114B124A1A60104B4FF4E1325A600E4BD8
:1042F00000229A600C4B0022DA600B4B00221A61FC
:10430000094B0C225A61084B00229A61064B00228D
:10431000DA61054804F0BBFA0346002B01D0FFF731
:104320003BFC00BF80BD00BF940600200038014068
:1043300080B500AF114B124A1A60104B4FF4165261
:104340005A600E4B00229A600C4B0022DA600B4B35
:1043500000221A61094B0C225A61084B00229A6113
:10436000064B0022DA61054804F091FA0346002B5F
:1043700001D0FFF711FC00BF80BD00BFDC060020AC
:104380000044004080B58AB000AF786007F11803A0
:1043900000221A605A609A60DA607B681B683B4AA8
:1043A000934232D13A4B9B69394A43F4804393613B
:1043B000374B9B6903F480437B617B69344B9B697A
:1043C000334A43F004039361314B9B6903F00403C8
:1043D0003B613B694FF40073BB610223FB61032324
:1043E0007B6207F1180319462A4801F0BDF84FF423
:1043F0008063BB610023FB6100233B6207F118036C
:104400001946244801F0B0F83CE07B681B68224A5A
:10441000934237D11E4BDB691D4A43F40033D3610D
:104420001B4BDB6903F40033FB60FB68184B9B6993
:10443000174A43F004039361154B9B6903F004038F
:10444000BB60BB680423BB610223FB6103237B6267
:1044500007F1180319460F4801F086F80823BB61DD
:104460000023FB6100233B6207F11803194609484A
:1044700001F07AF800220521262000F098FD262080
:1044800000F0B1FD00BF2837BD4680BD00380140B7
:10449000001002400008014000440040FFF778FD92
:1044A0000B480C490C4A002302E0D458C450043392
:1044B000C4188C42F9D3094A094C002301E0136067
:1044C0000432A242FBD30BF0D5FAFFF7B7FA7047DC
:1044D0000000002054030020F05B01085803002076
:1044E000BC3E0020FEE7000080B500AF084B1B6813
:1044F000074A43F010031360032000F04DFD0F2026
:10450000FFF7C8FBFFF78EFB0023184680BD00BFF6
:104510000020024080B400AF054B1B781A46054BC3
:104520001B681344034A136000BFBD4680BC70473C
:10453000240000202407002080B400AF024B1B6839
:104540001846BD4680BC70472407002080B584B063
:1045500000AF7860FFF7F0FFB8607B68FB60FB6836
:10456000B3F1FF3F05D00A4B1B781A46FB68134492
:10457000FB6000BFFFF7E0FF0246BB68D31AFA6892
:104580009A42F7D800BF00BF1037BD4680BD00BFBC
:104590002400002080B586B000AF78600023FB7552
:1045A00000233B610023BB600023FB607B68002B82
:1045B00001D10123BEE07B689B68002B7B689B6A6E
:1045C000002B09D17B680022DA627B68002283F825
:1045D00024207868FDF70CF8786800F0F1FB0346BA
:1045E000FB757B689B6A03F01003002B40F09980F9
:1045F000FB7D002B40F095807B689B6A23F48853F9
:1046000023F0020343F002027B689A627B685A68D7
:104610007B68DB691A437B681B7B5B001343BA68CA
:104620001343BB607B689B68B3F5807F03D07B68D6
:104630009B68012B02D14FF4807300E000233A699C
:1046400013433B617B681B7D012B19D17B681B7B6E
:10465000002B09D17B689B69013B5A033B691343DB
:1046600043F400633B610BE07B689B6A43F02002EC
:104670007B689A627B68DB6A43F001027B68DA62DE
:104680007B681B685B6823F469417B681B683A6937
:104690000A435A607B681B689A68284B13407A6803
:1046A0001268B9680B4393607B689B68B3F5807FA1
:1046B00003D07B689B68012B04D17B681B69013B9D
:1046C0001B05FB607B681B68DB6A23F470017B6859
:1046D0001B68FA680A43DA627B681B689A68184BA1
:1046E0001340BA689A420BD17B680022DA627B6879
:1046F0009B6A23F0030343F001027B689A6218E08F
:104700007B689B6A23F0120343F010027B689A6275
:104710007B68DB6A43F001027B68DA620123FB7588
:1047200007E07B689B6A43F010027B689A62012372
:10473000FB75FB7D18461837BD4680BDFDF7E1FFD0
:10474000FE0E1FFF80B584B000AF78600023FB73BE
:104750007B6893F82430012B01D1022398E07B6819
:10476000012283F82420786800F0D0FA0346FB7316
:10477000FB7B002B40F087807B689B6A23F44073AF
:1047800023F0010343F480727B689A627B681B68A4
:10479000414A934205D1414B5B6803F47023002BDF
:1047A00015D17B689B6A23F480127B689A627B68D0
:1047B0001B685B6803F48063002B26D07B689B6AD0
:1047C00023F4405343F480527B689A621DE07B6877
:1047D0009B6A43F480127B689A627B681B682F4A4D
:1047E000934204D07B681B682B4A93420DD12B4B1C
:1047F0005B6803F48063002B07D07B689B6A23F41B
:10480000405343F480527B689A627B689B6A03F44E
:104810008053002B06D07B68DB6A23F006027B689E
:10482000DA6202E07B680022DA627B68002283F8A9
:1048300024207B681B686FF002021A607B681B688B
:104840009B6803F46023B3F5602F13D17B681B686A
:10485000114A934205D1114B5B6803F47023002B7E
:1048600008D17B681B689A687B681B6842F4A002C9
:104870009A600CE07B681B689A687B681B6842F44E
:1048800080129A6003E07B68002283F82420FB7B7F
:1048900018461037BD4680BD002801400024014065
:1048A00080B584B000AF78600023FB737B6893F819
:1048B0002430012B01D102231AE07B68012283F806
:1048C0002420786800F07CFA0346FB73FB7B002B06
:1048D00009D17B689B6A23F4885323F0010343F0DA
:1048E00001027B689A627B68002283F82420FB7BAC
:1048F00018461037BD4680BD90B587B000AF7860D0
:10490000396000237B610023FB6000233B61FFF7DC
:1049100013FE78617B681B689B6803F48073002B2F
:104920000BD07B689B6A43F020027B689A627B68AD
:10493000002283F824200123D3E07B681B685B6896
:1049400003F48073002B31D17B681B68DB6A03F4AE
:104950007003002B2AD121E03B68B3F1FF3F1DD04B
:104960003B68002B07D0FFF7E7FD02467B69D31AAF
:104970003A689A4212D27B681B681B6803F00203F4
:10498000002B0BD17B689B6A43F004027B689A6220
:104990007B68002283F824200323A2E07B681B6845
:1049A0001B6803F00203002BD6D070E04F4B1C684D
:1049B000022002F025FD0346B4FBF3F27B681B687E
:1049C00019694B4B0B40002B18D17B681B68D968C9
:1049D000484B0B40002B11D17B681B681969464B73
:1049E0000B40002B08D17B681B68D968434B0B40F8
:1049F000002B01D1142320E029231EE07B681B68D3
:104A000019693D4B0B40002B06D17B681B68D968A8
:104A10003A4B0B40002B0DD07B681B681969384B53
:104A20000B40002B08D17B681B68D968344B0B40C6
:104A3000002B01D1542300E0FC2302FB03F33B6174
:104A400021E03B68B3F1FF3F1AD03B68002B07D051
:104A5000FFF772FD02467B69D31A3A689A420FD279
:104A6000FB683A699A420BD97B689B6A43F004025F
:104A70007B689A627B68002283F82420032330E05D
:104A8000FB680133FB60FB683A699A42D9D87B68BE
:104A90001B686FF012021A607B689B6A43F4007215
:104AA0007B689A627B681B689B6803F46023B3F59C
:104AB000602F15D17B681B7B002B11D17B689B6A13
:104AC00023F480727B689A627B689B6A03F480534C
:104AD000002B05D17B689B6A43F001027B689A62D8
:104AE000002318461C37BD4690BD00BF1C000020A7
:104AF0002449922424499200922449129224490084
:104B00004992240080B483B000AF78607B681B6852
:104B1000DB6C18460C37BD4680BC704780B485B04E
:104B200000AF786039600023FB730023BB607B68B3
:104B300093F82430012B01D10223DCE07B680122B1
:104B400083F824203B685B68062B1CD87B681B68B5
:104B5000596B3B685A6813469B001344053B1F2260
:104B600002FA03F3DB4319403B6818683B685A6854
:104B700013469B001344053B00FA03F27B681B6855
:104B80000A435A633CE03B685B680C2B1CD87B688B
:104B90001B68196B3B685A6813469B001344233B00
:104BA0001F2202FA03F3DB4319403B6818683B6895
:104BB0005A6813469B001344233B00FA03F27B68B8
:104BC0001B680A431A631BE07B681B68D96A3B6851
:104BD0005A6813469B001344413B1F2202FA03F319
:104BE000DB4319403B6818683B685A6813469B00D2
:104BF0001344413B00FA03F27B681B680A43DA6204
:104C00003B681B68092B1CD97B681B68D9683B680B
:104C10001A6813465B0013441E3B072202FA03F393
:104C2000DB4319403B6898683B681A6813465B0091
:104C300013441E3B00FA03F27B681B680A43DA60E8
:104C400019E07B681B6819693B681A6813465B00AA
:104C50001344072202FA03F3DB4319403B689868C8
:104C60003B681A6813465B00134400FA03F27B6842
:104C70001B680A431A613B681B68102B03D03B6812
:104C80001B68112B32D17B681B681D4A934225D1CA
:104C90007B681B689B6803F40003002B26D17B68AC
:104CA0001B689A687B681B6842F400029A603B6844
:104CB0001B68102B1AD1134B1B68134AA2FB03234A
:104CC0009A0C13469B0013445B00BB6002E0BB6878
:104CD000013BBB60BB68002BF9D107E07B689B6A96
:104CE00043F020027B689A620123FB737B680022F9
:104CF00083F82420FB7B18461437BD4680BC7047E0
:104D0000002401401C00002083DE1B4380B584B0DA
:104D100000AF78600023FB600023BB607B681B68EA
:104D20009B6803F00103012B40D07B681B689A68E5
:104D30007B681B6842F001029A601F4B1B681F4A88
:104D4000A2FB03239B0CBB6002E0BB68013BBB6082
:104D5000BB68002BF9D1FFF7EFFBF8601FE0FFF70E
:104D6000EBFB0246FB68D31A022B18D97B681B6841
:104D70009B6803F00103012B11D07B689B6A43F011
:104D800010027B689A627B68DB6A43F001027B68F1
:104D9000DA627B68002283F82420012307E07B6825
:104DA0001B689B6803F00103012BD8D10023184630
:104DB0001037BD4680BD00BF1C00002083DE1B43B2
:104DC00080B584B000AF78600023FB607B681B680F
:104DD0009B6803F00103012B2ED17B681B689A6846
:104DE0007B681B6822F001029A60FFF7A5FBF86060
:104DF0001BE0FFF7A1FB0246FB68D31A022B14D974
:104E00007B681B689B6803F00103012B0DD17B6855
:104E10009B6A43F010027B689A627B68DB6A43F00E
:104E200001027B68DA62012307E07B681B689B68EC
:104E300003F00103012BDCD0002318461037BD46D8
:104E400080BD000080B485B000AF78607B6803F05F
:104E50000703FB600C4BDB68BB60BA684FF6FF03CF
:104E60001340BB60FB681A02BB68134343F0BF6387
:104E700043F40033BB60044ABB68D36000BF1437FF
:104E8000BD4680BC704700BF00ED00E080B400AFBD
:104E9000044BDB681B0A03F007031846BD4680BCC1
:104EA000704700BF00ED00E080B483B000AF034660
:104EB000FB7197F90730002B0BDBFB7903F01F0226
:104EC000064997F907305B09012000FA02F241F820
:104ED000232000BF0C37BD4680BC704700E100E0D6
:104EE00080B483B000AF03463960FB7197F9073097
:104EF000002B0ADB3B68DAB20C4997F90730120144
:104F0000D2B20B4483F800230AE03B68DAB20849C6
:104F1000FB7903F00F03043B1201D2B20B441A7663
:104F200000BF0C37BD4680BC704700BF00E100E009
:104F300000ED00E080B489B000AFF860B9607A603D
:104F4000FB6803F00703FB61FB69C3F10703042B54
:104F500028BF0423BB61FB690433062B02D9FB691C
:104F6000033B00E000237B614FF0FF32BB6902FA94
:104F700003F3DA43BB681A407B699A404FF0FF3174
:104F80007B6901FA03F3D9437B680B40134318464E
:104F90002437BD4680BC704780B582B000AF7860D2
:104FA0007868FFF74FFF00BF0837BD4680BD80B56A
:104FB00086B000AF0346B9607A60FB7300237B6163
:104FC000FFF764FF78617A68B9687869FFF7B2FF24
:104FD000024697F90F3011461846FFF781FF00BFD0
:104FE0001837BD4680BD80B582B000AF0346FB7167
:104FF00097F907301846FFF757FF00BF0837BD463F
:1050000080BD80B485B000AF78600023FB737B68FF
:1050100093F82130DBB2022B08D07B6804229A631C
:105020007B68002283F82020012320E07B681B6836
:105030001A687B681B6822F00E021A607B681B6886
:105040001A687B681B6822F001021A607B681A6C80
:105050007B68DB6B012101FA02F25A607B68012256
:1050600083F821207B68002283F82020FB7B1846F0
:105070001437BD4680BC704780B584B000AF7860FF
:105080000023FB737B6893F82130DBB2022B05D041
:105090007B6804229A630123FB7351E07B681B68E1
:1050A0001A687B681B6822F00E021A607B681B6816
:1050B0001A687B681B6822F001021A607B681B6813
:1050C000224A934229D07B681B68214A934222D00E
:1050D0007B681B681F4A93421AD07B681B681E4A74
:1050E000934212D07B681B681C4A93420AD07B68AB
:1050F0001B681B4A934202D14FF480130EE04FF01D
:1051000080730BE04FF4803308E04FF4805305E0E8
:105110004FF4807302E0102300E00123114A536032
:105120007B68012283F821207B68002283F82020FD
:105130007B685B6B002B03D07B685B6B7868984760
:10514000FB7B18461037BD4680BD00BF08000240FB
:105150001C0002403000024044000240580002405F
:105160006C00024000000240F0B587B000AFF8606C
:10517000B960C7E900230123FB750023BB75002339
:105180007B752F4B1B7E012B01D1022354E02C4B4E
:1051900001221A764CF2503000F0A8F80346FB7555
:1051A000FB7D002B44D1FB68012B02D101237B75D1
:1051B00007E0FB68022B02D102237B7501E0042388
:1051C0007B750023BB752DE0BB7D5A00BB6802EBED
:1051D000030CBB7D1901D7E90023C1F12006A1F121
:1051E000200022FA01F403FA06F6344323FA00F011
:1051F000044323FA01F5A3B21946604600F05AF8B9
:105200004CF2503000F072F80346FB750D4B1B69F1
:105210000C4A23F001031361FB7D002B07D1BB7DFA
:105220000133BB75BA7D7B7D9A42CDD300E000BFD0
:10523000034B00221A76FB7D18461C37BD46F0BD95
:10524000280700200020024080B483B000AF002374
:10525000FB710D4B1B6903F08003002B0DD00A4B33
:105260000A4A5A60084B0A4A5A60074B1B6903F006
:105270008003002B01D00123FB71FB7918460C370A
:10528000BD4680BC704700BF002002402301674537
:10529000AB89EFCD80B400AF054B1B69044A43F0E6
:1052A0008003136100231846BD4680BC704700BFD1
:1052B0000020024080B483B000AF78600B467B8052
:1052C000084B0022DA61084B1B69074A43F00103CF
:1052D00013617B687A881A8000BF0C37BD4680BC9A
:1052E000704700BF280700200020024080B584B02E
:1052F00000AF7860FFF720F9F86010E07B68B3F149
:10530000FF3F0CD07B68002B07D0FFF715F9024652
:10531000FB68D31A7A689A4201D2032325E0154B21
:10532000DB6803F00103002BE8D1124BDB6803F0CC
:105330002003002B02D00F4B2022DA600D4BDB68DC
:1053400003F01003002B0BD10A4BDB6903F00103C0
:10535000002B05D1074BDB6803F00403002B03D0BF
:1053600000F00AF8012300E0002318461037BD467C
:1053700080BD00BF0020024080B483B000AF002396
:105380007B60234BDB6803F01003002B09D0214B1B
:10539000DB6943F002031F4AD3617B6843F01003CB
:1053A0007B601B4BDB6803F00403002B09D0194B17
:1053B000DB6943F00103174AD3617B6843F00403C0
:1053C0007B60134BDB6903F00103002B0BD0114B07
:1053D000DB6943F004030F4AD3610D4BDB690C4AD0
:1053E00023F00103D3617B6840F20112934206D19E
:1053F000074BDB69064A23F00103D36102E0044A4C
:105400007B68D36000BF0C37BD4680BC704700BFCF
:10541000002002402807002080B584B000AF7860EB
:1054200039600123FB730023BB602F4B1B7E012BD4
:1054300001D1022353E02C4B01221A767B681B68B2
:10544000022B16D14CF25030FFF750FF0346002BD1
:1054500041D1012000F04CF84CF25030FFF746FFEC
:105460000346FB73214B1B69204A23F0040313619D
:1054700031E04CF25030FFF739FF0346002B2AD1C0
:105480003B684FF0FF321A607B689B68BB6019E095
:10549000B86800F049F84CF25030FFF727FF034698
:1054A000FB73124B1B69114A23F002031361FB7B50
:1054B000002B03D03B68BA681A600CE0BB6803F5A8
:1054C0008063BB607B68DB689A027B689B681344DF
:1054D000BA689A42DCD3044B00221A76FB7B18464A
:1054E0001037BD4680BD00BF2807002000200240C5
:1054F00080B483B000AF7860094B0022DA61094BB9
:105500001B69084A43F004031361064B1B69054AF3
:1055100043F04003136100BF0C37BD4680BC7047A9
:10552000280700200020024080B483B000AF7860DC
:105530000B4B0022DA610B4B1B690A4A43F0020352
:105540001361084A7B685361064B1B69054A43F0A7
:105550004003136100BF0C37BD4680BC704700BFDD
:10556000280700200020024080B48BB000AF786094
:10557000396000237B6200233B6269E101227B6A80
:1055800002FA03F3FB613B681B68FA691340BB61D5
:10559000BA69FB699A4240F058813B685B689A4A55
:1055A00093425ED0984A934275D8984A934258D015
:1055B000964A93426FD8964A934252D0944A934265
:1055C00069D8944A93424CD0924A934263D8924A03
:1055D000934246D0904A93425DD8122B2AD8122B80
:1055E00059D801A252F823F0635600083D5600082E
:1055F0004F56000891560008975600089756000825
:1056000097560008975600089756000897560008C6
:1056100097560008975600089756000897560008B6
:1056200097560008975600089756000845560008F8
:1056300059560008794A934213D02CE03B68DB6846
:105640003B6229E03B68DB6804333B6224E03B6853
:10565000DB6808333B621FE03B68DB680C333B626E
:105660001AE03B689B68002B02D104233B6213E0E5
:105670003B689B68012B05D108233B627B68FA6974
:105680001A6109E008233B627B68FA695A6103E00A
:1056900000233B6200E000BFBB69FF2B01D87B68A1
:1056A00001E07B6804337B61BB69FF2B02D87B6A16
:1056B0009B0002E07B6A083B9B003B617B691A68A8
:1056C0000F213B6901FA03F3DB431A40396A3B6956
:1056D00001FA03F31A437B691A603B685B6803F0C5
:1056E0008053002B00F0B1804D4B9B694C4A43F036
:1056F000010393614A4B9B6903F00103BB60BB68E4
:10570000484A7B6A9B08023352F82330FB607B6A6D
:1057100003F003039B000F2202FA03F3DB43FA6852
:105720001340FB607B68404A934213D07B683F4A3A
:1057300093420DD07B683E4A934207D07B683D4A36
:10574000934201D1032306E0042304E0022302E094
:10575000012300E000237A6A02F0030292009340E2
:10576000FA681343FB602F497B6A9B080233FA688F
:1057700041F823203B685B6803F48013002B06D0BC
:105780002D4B9A682C49BB6913438B6006E02A4B6A
:105790009A68BB69DB43284913408B603B685B68B0
:1057A00003F40013002B06D0234BDA682249BB69AF
:1057B0001343CB6006E0204BDA68BB69DB431E492C
:1057C0001340CB603B685B6803F40033002B06D0CA
:1057D000194B5A681849BB6913434B6006E0164BD6
:1057E0005A68BB69DB43144913404B603B685B68F4
:1057F00003F48033002B21D00F4B1A680E49BB698C
:1058000013430B6021E000BF000032100000311094
:1058100000002210000021100000121000001110E2
:10582000001002400000014000080140000C01404F
:105830000010014000140140000401400B4B1A68A5
:10584000BB69DB43094913400B607B6A01337B6210
:105850003B681A687B6A22FA03F3002B7FF48EAE52
:1058600000BF00BF2C37BD4680BC7047000401401C
:1058700080B485B000AF78600B467B807B689A6807
:105880007B881340002B02D00123FB7301E000232F
:10589000FB73FB7B18461437BD4680BC704780B451
:1058A00083B000AF78600B467B8013467B707B78BB
:1058B000002B03D07A887B681A6103E07B881A0486
:1058C0007B681A6100BF0C37BD4680BC704780B44E
:1058D00085B000AF78600B467B807B68DB68FB603F
:1058E0007A88FB6813401A04FB68D9437B880B4015
:1058F0001A437B681A6100BF1437BD4680BC7047ED
:1059000080B582B000AF0346FB80084B5A69FB8824
:105910001340002B06D0054AFB885361FB881846CC
:10592000FDF7CAFE00BF0837BD4680BD0004014038
:1059300080B584B000AF78607B68002B01D1012373
:105940002BE17B6893F83D30DBB2002B06D17B68FE
:10595000002283F83C207868FEF704F87B68242254
:1059600083F83D207B681B681A687B681B6822F0FF
:1059700001021A607B681B681A687B681B6842F426
:1059800000421A607B681B681A687B681B6822F4F7
:1059900000421A6001F008FCF8607B685B68814A8D
:1059A000934207D8FB68804A934294BF01230023A7
:1059B000DBB206E0FB687D4A934294BF01230023DB
:1059C000DBB2002B01D00123E7E0FB68784AA2FBA1
:1059D00003239B0CBB607B681B685B6823F03F0163
:1059E0007B681B68BA680A435A607B681B681B6A3D
:1059F00023F03F017B685B686A4A934202D8BB6828
:105A0000013309E0BB684FF4967202FB03F3694A65
:105A1000A2FB03239B0901337A6812680B431362CC
:105A20007B681B68DB6923F44F4222F0FF027B682E
:105A30005B685C498B4219D8FB68591E7B685B68C0
:105A40005B00B1FBF3F3591C40F6FC730B40002BD9
:105A50000AD0FB68591E7B685B685B00B1FBF3F3FF
:105A60000133C3F30B0351E004234FE07B689B68D1
:105A7000002B11D1FB68581E7B6859680B465B00F0
:105A80000B44B0FBF3F30133C3F30B03002B0CBF48
:105A900001230023DBB212E0FB68581E7B685968C3
:105AA0000B469B000B4499000B44B0FBF3F301330E
:105AB000C3F30B03002B0CBF01230023DBB2002B2D
:105AC00001D0012322E07B689B68002B0ED1FB688C
:105AD000581E7B6859680B465B000B44B0FBF3F320
